{
  "contractName": "Election",
  "abi": [
    {
      "inputs": [],
      "payable": false,
      "stateMutability": "nonpayable",
      "type": "constructor"
    },
    {
      "constant": true,
      "inputs": [
        {
          "internalType": "uint256",
          "name": "",
          "type": "uint256"
        }
      ],
      "name": "candidates",
      "outputs": [
        {
          "internalType": "uint256",
          "name": "id",
          "type": "uint256"
        },
        {
          "internalType": "string",
          "name": "name",
          "type": "string"
        },
        {
          "internalType": "string",
          "name": "gender",
          "type": "string"
        },
        {
          "internalType": "uint256",
          "name": "voteCount",
          "type": "uint256"
        }
      ],
      "payable": false,
      "stateMutability": "view",
      "type": "function"
    },
    {
      "constant": true,
      "inputs": [],
      "name": "candidatesCount",
      "outputs": [
        {
          "internalType": "uint256",
          "name": "",
          "type": "uint256"
        }
      ],
      "payable": false,
      "stateMutability": "view",
      "type": "function"
    },
    {
      "constant": true,
      "inputs": [
        {
          "internalType": "address",
          "name": "",
          "type": "address"
        }
      ],
      "name": "voters",
      "outputs": [
        {
          "internalType": "bool",
          "name": "",
          "type": "bool"
        }
      ],
      "payable": false,
      "stateMutability": "view",
      "type": "function"
    },
    {
      "constant": true,
      "inputs": [
        {
          "internalType": "address",
          "name": "_add",
          "type": "address"
        }
      ],
      "name": "getVoter",
      "outputs": [
        {
          "internalType": "bool",
          "name": "",
          "type": "bool"
        }
      ],
      "payable": false,
      "stateMutability": "view",
      "type": "function"
    },
    {
      "constant": false,
      "inputs": [
        {
          "internalType": "string",
          "name": "_name",
          "type": "string"
        },
        {
          "internalType": "string",
          "name": "_gender",
          "type": "string"
        }
      ],
      "name": "addCandidate",
      "outputs": [],
      "payable": false,
      "stateMutability": "nonpayable",
      "type": "function"
    },
    {
      "constant": true,
      "inputs": [],
      "name": "getCount",
      "outputs": [
        {
          "internalType": "uint256",
          "name": "",
          "type": "uint256"
        }
      ],
      "payable": false,
      "stateMutability": "view",
      "type": "function"
    },
    {
      "constant": true,
      "inputs": [
        {
          "internalType": "uint256",
          "name": "i",
          "type": "uint256"
        }
      ],
      "name": "getCandidates",
      "outputs": [
        {
          "internalType": "uint256",
          "name": "",
          "type": "uint256"
        },
        {
          "internalType": "string",
          "name": "",
          "type": "string"
        },
        {
          "internalType": "string",
          "name": "",
          "type": "string"
        },
        {
          "internalType": "uint256",
          "name": "",
          "type": "uint256"
        }
      ],
      "payable": false,
      "stateMutability": "view",
      "type": "function"
    },
    {
      "constant": false,
      "inputs": [
        {
          "internalType": "uint256",
          "name": "_candidateId",
          "type": "uint256"
        }
      ],
      "name": "vote",
      "outputs": [],
      "payable": false,
      "stateMutability": "nonpayable",
      "type": "function"
    }
  ],
  "bytecode": "0x60806040523480156200001157600080fd5b506200008e6040518060400160405280600481526020017f42696c6c000000000000000000000000000000000000000000000000000000008152506040518060400160405280600181526020017f4d000000000000000000000000000000000000000000000000000000000000008152506200020860201b60201c565b6200010a6040518060400160405280600381526020017f546f6d00000000000000000000000000000000000000000000000000000000008152506040518060400160405280600181526020017f4d000000000000000000000000000000000000000000000000000000000000008152506200020860201b60201c565b620001866040518060400160405280600781526020017f5368616c696e65000000000000000000000000000000000000000000000000008152506040518060400160405280600181526020017f66000000000000000000000000000000000000000000000000000000000000008152506200020860201b60201c565b620002026040518060400160405280600681526020017f4a616e69636500000000000000000000000000000000000000000000000000008152506040518060400160405280600181526020017f4d000000000000000000000000000000000000000000000000000000000000008152506200020860201b60201c565b6200035b565b6002600081548092919060010191905055506040518060800160405280600254815260200183815260200182815260200160008152506001600060025481526020019081526020016000206000820151816000015560208201518160010190805190602001906200027b929190620002ac565b5060408201518160020190805190602001906200029a929190620002ac565b50606082015181600301559050505050565b828054600181600116156101000203166002900490600052602060002090601f016020900481019282601f10620002ef57805160ff191683800117855562000320565b8280016001018555821562000320579182015b828111156200031f57825182559160200191906001019062000302565b5b5090506200032f919062000333565b5090565b6200035891905b80821115620003545760008160009055506001016200033a565b5090565b90565b610b3b806200036b6000396000f3fe608060405234801561001057600080fd5b50600436106100885760003560e01c80633e39a7a51161005b5780633e39a7a51461034c578063a3ec138d1461046d578063a87d942c146104c9578063d4f50f98146104e757610088565b80630121b93f1461008d57806326541b56146100bb5780632d35a8a21461020d5780633477ee2e1461022b575b600080fd5b6100b9600480360360208110156100a357600080fd5b8101908080359060200190929190505050610543565b005b61020b600480360360408110156100d157600080fd5b81019080803590602001906401000000008111156100ee57600080fd5b82018360208201111561010057600080fd5b8035906020019184600183028401116401000000008311171561012257600080fd5b91908080601f016020809104026020016040519081016040528093929190818152602001838380828437600081840152601f19601f8201169050808301925050505050505091929192908035906020019064010000000081111561018557600080fd5b82018360208201111561019757600080fd5b803590602001918460018302840111640100000000831117156101b957600080fd5b91908080601f016020809104026020016040519081016040528093929190818152602001838380828437600081840152601f19601f820116905080830192505050505050509192919290505050610634565b005b6102156106d4565b6040518082815260200191505060405180910390f35b6102576004803603602081101561024157600080fd5b81019080803590602001909291905050506106da565b604051808581526020018060200180602001848152602001838103835286818151815260200191508051906020019080838360005b838110156102a757808201518184015260208101905061028c565b50505050905090810190601f1680156102d45780820380516001836020036101000a031916815260200191505b50838103825285818151815260200191508051906020019080838360005b8381101561030d5780820151818401526020810190506102f2565b50505050905090810190601f16801561033a5780820380516001836020036101000a031916815260200191505b50965050505050505060405180910390f35b6103786004803603602081101561036257600080fd5b810190808035906020019092919050505061083a565b604051808581526020018060200180602001848152602001838103835286818151815260200191508051906020019080838360005b838110156103c85780820151818401526020810190506103ad565b50505050905090810190601f1680156103f55780820380516001836020036101000a031916815260200191505b50838103825285818151815260200191508051906020019080838360005b8381101561042e578082015181840152602081019050610413565b50505050905090810190601f16801561045b5780820380516001836020036101000a031916815260200191505b50965050505050505060405180910390f35b6104af6004803603602081101561048357600080fd5b81019080803573ffffffffffffffffffffffffffffffffffffffff1690602001909291905050506109e2565b604051808215151515815260200191505060405180910390f35b6104d1610a02565b6040518082815260200191505060405180910390f35b610529600480360360208110156104fd57600080fd5b81019080803573ffffffffffffffffffffffffffffffffffffffff169060200190929190505050610a0c565b604051808215151515815260200191505060405180910390f35b6000803373ffffffffffffffffffffffffffffffffffffffff1673ffffffffffffffffffffffffffffffffffffffff16815260200190815260200160002060009054906101000a900460ff161561059957600080fd5b6000811180156105ab57506002548111155b6105b457600080fd5b60016000803373ffffffffffffffffffffffffffffffffffffffff1673ffffffffffffffffffffffffffffffffffffffff16815260200190815260200160002060006101000a81548160ff021916908315150217905550600160008281526020019081526020016000206003016000815480929190600101919050555050565b6002600081548092919060010191905055506040518060800160405280600254815260200183815260200182815260200160008152506001600060025481526020019081526020016000206000820151816000015560208201518160010190805190602001906106a5929190610a61565b5060408201518160020190805190602001906106c2929190610a61565b50606082015181600301559050505050565b60025481565b6001602052806000526040600020600091509050806000015490806001018054600181600116156101000203166002900480601f01602080910402602001604051908101604052809291908181526020018280546001816001161561010002031660029004801561078c5780601f106107615761010080835404028352916020019161078c565b820191906000526020600020905b81548152906001019060200180831161076f57829003601f168201915b505050505090806002018054600181600116156101000203166002900480601f01602080910402602001604051908101604052809291908181526020018280546001816001161561010002031660029004801561082a5780601f106107ff5761010080835404028352916020019161082a565b820191906000526020600020905b81548152906001019060200180831161080d57829003601f168201915b5050505050908060030154905084565b60006060806000600160008681526020019081526020016000206000015460016000878152602001908152602001600020600101600160008881526020019081526020016000206002016001600089815260200190815260200160002060030154828054600181600116156101000203166002900480601f0160208091040260200160405190810160405280929190818152602001828054600181600116156101000203166002900480156109305780601f1061090557610100808354040283529160200191610930565b820191906000526020600020905b81548152906001019060200180831161091357829003601f168201915b50505050509250818054600181600116156101000203166002900480601f0160208091040260200160405190810160405280929190818152602001828054600181600116156101000203166002900480156109cc5780601f106109a1576101008083540402835291602001916109cc565b820191906000526020600020905b8154815290600101906020018083116109af57829003601f168201915b5050505050915093509350935093509193509193565b60006020528060005260406000206000915054906101000a900460ff1681565b6000600254905090565b60008060008373ffffffffffffffffffffffffffffffffffffffff1673ffffffffffffffffffffffffffffffffffffffff16815260200190815260200160002060009054906101000a900460ff169050919050565b828054600181600116156101000203166002900490600052602060002090601f016020900481019282601f10610aa257805160ff1916838001178555610ad0565b82800160010185558215610ad0579182015b82811115610acf578251825591602001919060010190610ab4565b5b509050610add9190610ae1565b5090565b610b0391905b80821115610aff576000816000905550600101610ae7565b5090565b9056fea265627a7a72315820400d20c989dddcde9bedbca7cb16efc6eeeab2d88186298a182816674ff59e3d64736f6c63430005100032",
  "source": "pragma solidity >0.4.18 <0.8.0;\r\n/**\r\n * The contractName contract does this and that...\r\n */\r\ncontract Election {\r\n\t// Model a candidate\r\n\tstruct Candidate{\r\n\t\tuint id;\r\n\t\tstring name;\r\n\t\tstring gender;\r\n\t\tuint voteCount;\r\n\t}\r\n\t// store accounts that have voted\r\n\tmapping(address => bool) public voters;\r\n\t// Store a candidate\r\n\t//Fetch Candidate\r\n\tmapping(uint => Candidate) public candidates;\r\n\t\r\n\t// Store candidate count \r\n\tuint public candidatesCount;\r\n\r\n\t//constructor\r\n\tconstructor() public{\r\n\t\t// name and gender\r\n\t\taddCandidate(\"Bill\",\"M\");\r\n\t\taddCandidate(\"Tom\",\"M\");\r\n\t\taddCandidate(\"Shaline\",\"f\");\r\n\t\t\r\n\t\taddCandidate(\"Janice\",\"M\");\r\n\t}\r\n\tfunction getVoter(address _add) public view returns(bool){\r\n\t\treturn voters[_add];\r\n\t}\r\n\tfunction addCandidate (string memory _name,string memory _gender) public {\r\n\t\tcandidatesCount ++;\r\n\t\tcandidates[candidatesCount] = Candidate(candidatesCount, _name, _gender, 0);\r\n\t}\r\n\r\n\tfunction getCount() public view returns(uint){\r\n\t\treturn candidatesCount;\r\n\t}\r\n\tfunction getCandidates(uint i) public view returns( uint, string memory, string memory, uint ){\r\n\t\treturn (candidates[i].id,candidates[i].name,candidates[i].gender,candidates[i].voteCount);\r\n\t}\r\n\r\n\r\n\tfunction vote(uint _candidateId) public {\r\n\t\t// require that the voter hasn't voted before\r\n\t\t\r\n\t\trequire (!voters[msg.sender]);\r\n\r\n\r\n\t\t// require a valid candidate\r\n\t\trequire (_candidateId > 0 && _candidateId <= candidatesCount);\r\n\r\n\t\t//record  that voter has voted\r\n\t\tvoters[msg.sender] = true;\r\n\r\n\t\t// update candiadte voteCount\r\n\t\tcandidates[_candidateId].voteCount ++;\r\n\t\r\n\t\t}\r\n}",
  "sourcePath": "D:/GitProject/Projects/E-Voting System/Truffle/contracts/Election.sol",
  "compiler": {
    "name": "solc",
    "version": "0.5.16+commit.9c3226ce.Emscripten.clang"
  },
  "schemaVersion": "3.4.1",
  "updatedAt": "2021-05-27T15:51:13.729Z",
  "networkType": "ethereum",
  "devdoc": {
    "methods": {}
  },
  "userdoc": {
    "methods": {},
    "notice": "The contractName contract does this and that..."
  }
}