{
  "contractName": "Election",
  "abi": [
    {
      "inputs": [],
      "payable": false,
      "stateMutability": "nonpayable",
      "type": "constructor"
    },
    {
      "constant": true,
      "inputs": [
        {
          "internalType": "uint256",
          "name": "",
          "type": "uint256"
        }
      ],
      "name": "candidates",
      "outputs": [
        {
          "internalType": "uint256",
          "name": "id",
          "type": "uint256"
        },
        {
          "internalType": "string",
          "name": "name",
          "type": "string"
        },
        {
          "internalType": "string",
          "name": "gender",
          "type": "string"
        },
        {
          "internalType": "uint256",
          "name": "voteCount",
          "type": "uint256"
        }
      ],
      "payable": false,
      "stateMutability": "view",
      "type": "function"
    },
    {
      "constant": true,
      "inputs": [],
      "name": "candidatesCount",
      "outputs": [
        {
          "internalType": "uint256",
          "name": "",
          "type": "uint256"
        }
      ],
      "payable": false,
      "stateMutability": "view",
      "type": "function"
    },
    {
      "constant": true,
      "inputs": [
        {
          "internalType": "address",
          "name": "",
          "type": "address"
        }
      ],
      "name": "voters",
      "outputs": [
        {
          "internalType": "bool",
          "name": "",
          "type": "bool"
        }
      ],
      "payable": false,
      "stateMutability": "view",
      "type": "function"
    },
    {
      "constant": true,
      "inputs": [
        {
          "internalType": "address",
          "name": "_add",
          "type": "address"
        }
      ],
      "name": "getVoter",
      "outputs": [
        {
          "internalType": "bool",
          "name": "",
          "type": "bool"
        }
      ],
      "payable": false,
      "stateMutability": "view",
      "type": "function"
    },
    {
      "constant": false,
      "inputs": [
        {
          "internalType": "string",
          "name": "_name",
          "type": "string"
        },
        {
          "internalType": "string",
          "name": "_gender",
          "type": "string"
        }
      ],
      "name": "addCandidate",
      "outputs": [],
      "payable": false,
      "stateMutability": "nonpayable",
      "type": "function"
    },
    {
      "constant": true,
      "inputs": [],
      "name": "getCount",
      "outputs": [
        {
          "internalType": "uint256",
          "name": "",
          "type": "uint256"
        }
      ],
      "payable": false,
      "stateMutability": "view",
      "type": "function"
    },
    {
      "constant": true,
      "inputs": [
        {
          "internalType": "uint256",
          "name": "i",
          "type": "uint256"
        }
      ],
      "name": "getCandidates",
      "outputs": [
        {
          "internalType": "uint256",
          "name": "",
          "type": "uint256"
        },
        {
          "internalType": "string",
          "name": "",
          "type": "string"
        },
        {
          "internalType": "string",
          "name": "",
          "type": "string"
        },
        {
          "internalType": "uint256",
          "name": "",
          "type": "uint256"
        }
      ],
      "payable": false,
      "stateMutability": "view",
      "type": "function"
    },
    {
      "constant": true,
      "inputs": [],
      "name": "getStatus",
      "outputs": [
        {
          "internalType": "string",
          "name": "",
          "type": "string"
        }
      ],
      "payable": false,
      "stateMutability": "view",
      "type": "function"
    },
    {
      "constant": false,
      "inputs": [
        {
          "internalType": "uint256",
          "name": "_candidateId",
          "type": "uint256"
        }
      ],
      "name": "vote",
      "outputs": [],
      "payable": false,
      "stateMutability": "nonpayable",
      "type": "function"
    }
  ],
  "bytecode": "0x60806040523480156200001157600080fd5b506200008e6040518060400160405280600481526020017f42696c6c000000000000000000000000000000000000000000000000000000008152506040518060400160405280600181526020017f4d000000000000000000000000000000000000000000000000000000000000008152506200018c60201b60201c565b6200010a6040518060400160405280600381526020017f546f6d00000000000000000000000000000000000000000000000000000000008152506040518060400160405280600181526020017f4d000000000000000000000000000000000000000000000000000000000000008152506200018c60201b60201c565b620001866040518060400160405280600481526020017f4e6f7461000000000000000000000000000000000000000000000000000000008152506040518060400160405280600481526020017f4e554c4c000000000000000000000000000000000000000000000000000000008152506200018c60201b60201c565b620002df565b600260008154809291906001019190505550604051806080016040528060025481526020018381526020018281526020016000815250600160006002548152602001908152602001600020600082015181600001556020820151816001019080519060200190620001ff92919062000230565b5060408201518160020190805190602001906200021e92919062000230565b50606082015181600301559050505050565b828054600181600116156101000203166002900490600052602060002090601f016020900481019282601f106200027357805160ff1916838001178555620002a4565b82800160010185558215620002a4579182015b82811115620002a357825182559160200191906001019062000286565b5b509050620002b39190620002b7565b5090565b620002dc91905b80821115620002d8576000816000905550600101620002be565b5090565b90565b610c9c80620002ef6000396000f3fe608060405234801561001057600080fd5b50600436106100935760003560e01c80633e39a7a5116100665780633e39a7a5146103575780634e69d56014610478578063a3ec138d146104fb578063a87d942c14610557578063d4f50f981461057557610093565b80630121b93f1461009857806326541b56146100c65780632d35a8a2146102185780633477ee2e14610236575b600080fd5b6100c4600480360360208110156100ae57600080fd5b81019080803590602001909291905050506105d1565b005b610216600480360360408110156100dc57600080fd5b81019080803590602001906401000000008111156100f957600080fd5b82018360208201111561010b57600080fd5b8035906020019184600183028401116401000000008311171561012d57600080fd5b91908080601f016020809104026020016040519081016040528093929190818152602001838380828437600081840152601f19601f8201169050808301925050505050505091929192908035906020019064010000000081111561019057600080fd5b8201836020820111156101a257600080fd5b803590602001918460018302840111640100000000831117156101c457600080fd5b91908080601f016020809104026020016040519081016040528093929190818152602001838380828437600081840152601f19601f8201169050808301925050505050505091929192905050506106c2565b005b610220610762565b6040518082815260200191505060405180910390f35b6102626004803603602081101561024c57600080fd5b8101908080359060200190929190505050610768565b604051808581526020018060200180602001848152602001838103835286818151815260200191508051906020019080838360005b838110156102b2578082015181840152602081019050610297565b50505050905090810190601f1680156102df5780820380516001836020036101000a031916815260200191505b50838103825285818151815260200191508051906020019080838360005b838110156103185780820151818401526020810190506102fd565b50505050905090810190601f1680156103455780820380516001836020036101000a031916815260200191505b50965050505050505060405180910390f35b6103836004803603602081101561036d57600080fd5b81019080803590602001909291905050506108c8565b604051808581526020018060200180602001848152602001838103835286818151815260200191508051906020019080838360005b838110156103d35780820151818401526020810190506103b8565b50505050905090810190601f1680156104005780820380516001836020036101000a031916815260200191505b50838103825285818151815260200191508051906020019080838360005b8381101561043957808201518184015260208101905061041e565b50505050905090810190601f1680156104665780820380516001836020036101000a031916815260200191505b50965050505050505060405180910390f35b610480610a70565b6040518080602001828103825283818151815260200191508051906020019080838360005b838110156104c05780820151818401526020810190506104a5565b50505050905090810190601f1680156104ed5780820380516001836020036101000a031916815260200191505b509250505060405180910390f35b61053d6004803603602081101561051157600080fd5b81019080803573ffffffffffffffffffffffffffffffffffffffff169060200190929190505050610b43565b604051808215151515815260200191505060405180910390f35b61055f610b63565b6040518082815260200191505060405180910390f35b6105b76004803603602081101561058b57600080fd5b81019080803573ffffffffffffffffffffffffffffffffffffffff169060200190929190505050610b6d565b604051808215151515815260200191505060405180910390f35b6000803373ffffffffffffffffffffffffffffffffffffffff1673ffffffffffffffffffffffffffffffffffffffff16815260200190815260200160002060009054906101000a900460ff161561062757600080fd5b60008111801561063957506002548111155b61064257600080fd5b60016000803373ffffffffffffffffffffffffffffffffffffffff1673ffffffffffffffffffffffffffffffffffffffff16815260200190815260200160002060006101000a81548160ff021916908315150217905550600160008281526020019081526020016000206003016000815480929190600101919050555050565b600260008154809291906001019190505550604051806080016040528060025481526020018381526020018281526020016000815250600160006002548152602001908152602001600020600082015181600001556020820151816001019080519060200190610733929190610bc2565b506040820151816002019080519060200190610750929190610bc2565b50606082015181600301559050505050565b60025481565b6001602052806000526040600020600091509050806000015490806001018054600181600116156101000203166002900480601f01602080910402602001604051908101604052809291908181526020018280546001816001161561010002031660029004801561081a5780601f106107ef5761010080835404028352916020019161081a565b820191906000526020600020905b8154815290600101906020018083116107fd57829003601f168201915b505050505090806002018054600181600116156101000203166002900480601f0160208091040260200160405190810160405280929190818152602001828054600181600116156101000203166002900480156108b85780601f1061088d576101008083540402835291602001916108b8565b820191906000526020600020905b81548152906001019060200180831161089b57829003601f168201915b5050505050908060030154905084565b60006060806000600160008681526020019081526020016000206000015460016000878152602001908152602001600020600101600160008881526020019081526020016000206002016001600089815260200190815260200160002060030154828054600181600116156101000203166002900480601f0160208091040260200160405190810160405280929190818152602001828054600181600116156101000203166002900480156109be5780601f10610993576101008083540402835291602001916109be565b820191906000526020600020905b8154815290600101906020018083116109a157829003601f168201915b50505050509250818054600181600116156101000203166002900480601f016020809104026020016040519081016040528092919081815260200182805460018160011615610100020316600290048015610a5a5780601f10610a2f57610100808354040283529160200191610a5a565b820191906000526020600020905b815481529060010190602001808311610a3d57829003601f168201915b5050505050915093509350935093509193509193565b6060600115156000803373ffffffffffffffffffffffffffffffffffffffff1673ffffffffffffffffffffffffffffffffffffffff16815260200190815260200160002060009054906101000a900460ff1615151415610b07576040518060400160405280600481526020017f74727565000000000000000000000000000000000000000000000000000000008152509050610b40565b6040518060400160405280600581526020017f66616c736500000000000000000000000000000000000000000000000000000081525090505b90565b60006020528060005260406000206000915054906101000a900460ff1681565b6000600254905090565b60008060008373ffffffffffffffffffffffffffffffffffffffff1673ffffffffffffffffffffffffffffffffffffffff16815260200190815260200160002060009054906101000a900460ff169050919050565b828054600181600116156101000203166002900490600052602060002090601f016020900481019282601f10610c0357805160ff1916838001178555610c31565b82800160010185558215610c31579182015b82811115610c30578251825591602001919060010190610c15565b5b509050610c3e9190610c42565b5090565b610c6491905b80821115610c60576000816000905550600101610c48565b5090565b9056fea265627a7a72315820ab607e9d6bfe5129ffd1500d201db2744988dfef0fb3cabdd8dd7f40158288a464736f6c63430005100032",
  "source": "pragma solidity >0.4.18 <0.9.0;\r\n\r\ncontract Election {\r\n\t// Model a candidate\r\n\tstruct Candidate{ \r\n\t\tuint id;\r\n\t\t// string pan;\r\n\t\t// string mobile;\r\n\t\t// string email;\r\n\t\t// string constituency;\r\n\t\t// string partyName;\r\n\t\tstring name;\r\n\t\tstring gender;\r\n\t\tuint voteCount;\r\n\t}\r\n\t// store accounts that have voted\r\n\tmapping(address => bool) public voters;\r\n\t// Store a candidate\r\n\t//Fetch Candidate\r\n\tmapping(uint => Candidate) public candidates;\r\n\t\r\n\t// Store candidate count \r\n\tuint public candidatesCount;\r\n\r\n\t//constructor\r\n\tconstructor() public{\r\n\t\taddCandidate(\"Bill\",\"M\");//,\"AUX3234X\",\"9541229329\",\"Bill@rolla.in\",\"South Delhi\",\"BJP\");\r\n\t\taddCandidate(\"Tom\",\"M\");//,\"BSX3234X\",\"98134329329\",\"Tom@rolla.in\",\"Delhi\",\"Congress\");\r\n\t\t// addCandidate(\"Shaline\",\"f\",\"AVX3234X\",\"93129329329\",\"Shaline@rolla.in\",\"North Delhi\",\"TMC\");\r\n\t\t// addCandidate(\"Janice\",\"M\",\"AXf234X\",\"9829329329\",\"Janice@rolla.in\",\"East Delhi\",\"TDM\");\r\n\t\taddCandidate(\"Nota\", \"NULL\");//\"NULL\",\"NULL\",\"NULL\",\"NULL\",\"NULL\");\r\n\t}\r\n\tfunction getVoter(address _add) public view returns(bool){\r\n\t\treturn voters[_add];\r\n\t}\r\n\tfunction addCandidate (string memory _name,string memory _gender) public {//,string memory _pan,string memory _mobile,string memory _email,string memory _constituency,string memory _party) public {\r\n\t\tcandidatesCount ++;\r\n\t\tcandidates[candidatesCount] = Candidate(candidatesCount,_name, _gender, 0);// _pan,_mobile,_email,_constituency,_party\r\n\t}\r\n\r\n\tfunction getCount() public view returns(uint){\r\n\t\treturn candidatesCount;\r\n\t}\r\n\tfunction getCandidates(uint i) public view returns( uint, string memory, string memory, uint ){\r\n\t\t// \t\tuint id;\r\n\t\t// string pan;\r\n\t\t// string mobile;\r\n\t\t// string email;\r\n\t\t// string constituency;\r\n\t\t// string partyName;\r\n\t\t// string name;\r\n\t\t// string gender;\r\n\t\t// uint voteCount;\r\n\t\treturn (candidates[i].id,candidates[i].name,candidates[i].gender,candidates[i].voteCount);\r\n\t}\r\n\tfunction getStatus() public view returns(string memory){\r\n\t\t\tif(voters[msg.sender]==true){\r\n\t\t\t\treturn \"true\";\r\n\t\t\t}\r\n\t\t\treturn \"false\";\r\n\t}\r\n\r\n\tfunction vote(uint _candidateId) public {\r\n\t\t// require that the voter hasn't voted before\r\n\t\t\r\n\t\trequire (!voters[msg.sender]);\r\n\r\n\r\n\t\t// require a valid candidate\r\n\t\trequire (_candidateId > 0 && _candidateId <= candidatesCount);\r\n\r\n\t\t//record  that voter has voted\r\n\t\tvoters[msg.sender] = true;\r\n\r\n\t\t// update candiadte voteCount\r\n\t\tcandidates[_candidateId].voteCount ++;\r\n\t\r\n\t\t}\r\n}",
  "sourcePath": "D:/GitProject/Projects/E-Voting System/Truffle/contracts/Election.sol",
  "compiler": {
    "name": "solc",
    "version": "0.5.16+commit.9c3226ce.Emscripten.clang"
  },
  "schemaVersion": "3.4.1",
  "updatedAt": "2021-07-11T14:45:15.406Z",
  "networkType": "ethereum",
  "devdoc": {
    "methods": {}
  },
  "userdoc": {
    "methods": {}
  }
}