{
  "contractName": "SecretBallot",
  "abi": [
    {
      "inputs": [
        {
          "internalType": "bytes32[]",
          "name": "_candidateNames",
          "type": "bytes32[]"
        }
      ],
      "payable": false,
      "stateMutability": "nonpayable",
      "type": "constructor"
    },
    {
      "constant": true,
      "inputs": [],
      "name": "ballotCreator",
      "outputs": [
        {
          "internalType": "address",
          "name": "",
          "type": "address"
        }
      ],
      "payable": false,
      "stateMutability": "view",
      "type": "function"
    },
    {
      "constant": true,
      "inputs": [
        {
          "internalType": "uint256",
          "name": "",
          "type": "uint256"
        }
      ],
      "name": "candidateNames",
      "outputs": [
        {
          "internalType": "bytes32",
          "name": "",
          "type": "bytes32"
        }
      ],
      "payable": false,
      "stateMutability": "view",
      "type": "function"
    },
    {
      "constant": true,
      "inputs": [
        {
          "internalType": "address",
          "name": "",
          "type": "address"
        }
      ],
      "name": "hasVoted",
      "outputs": [
        {
          "internalType": "bool",
          "name": "",
          "type": "bool"
        }
      ],
      "payable": false,
      "stateMutability": "view",
      "type": "function"
    },
    {
      "constant": true,
      "inputs": [],
      "name": "totalVotes",
      "outputs": [
        {
          "internalType": "uint256",
          "name": "",
          "type": "uint256"
        }
      ],
      "payable": false,
      "stateMutability": "view",
      "type": "function"
    },
    {
      "constant": true,
      "inputs": [],
      "name": "votingEnded",
      "outputs": [
        {
          "internalType": "bool",
          "name": "",
          "type": "bool"
        }
      ],
      "payable": false,
      "stateMutability": "view",
      "type": "function"
    },
    {
      "constant": false,
      "inputs": [
        {
          "internalType": "bytes32",
          "name": "candidate",
          "type": "bytes32"
        }
      ],
      "name": "voteForCandidate",
      "outputs": [],
      "payable": false,
      "stateMutability": "nonpayable",
      "type": "function"
    },
    {
      "constant": false,
      "inputs": [],
      "name": "endVoting",
      "outputs": [
        {
          "internalType": "bool",
          "name": "",
          "type": "bool"
        }
      ],
      "payable": false,
      "stateMutability": "nonpayable",
      "type": "function"
    },
    {
      "constant": true,
      "inputs": [
        {
          "internalType": "bytes32",
          "name": "candidate",
          "type": "bytes32"
        }
      ],
      "name": "totalVotesFor",
      "outputs": [
        {
          "internalType": "uint256",
          "name": "",
          "type": "uint256"
        }
      ],
      "payable": false,
      "stateMutability": "view",
      "type": "function"
    },
    {
      "constant": true,
      "inputs": [],
      "name": "numCandidates",
      "outputs": [
        {
          "internalType": "uint256",
          "name": "count",
          "type": "uint256"
        }
      ],
      "payable": false,
      "stateMutability": "view",
      "type": "function"
    },
    {
      "constant": true,
      "inputs": [
        {
          "internalType": "bytes32",
          "name": "candidate",
          "type": "bytes32"
        }
      ],
      "name": "validCandidate",
      "outputs": [
        {
          "internalType": "bool",
          "name": "",
          "type": "bool"
        }
      ],
      "payable": false,
      "stateMutability": "view",
      "type": "function"
    }
  ],
  "bytecode": "0x608060405234801561001057600080fd5b506040516107873803806107878339818101604052602081101561003357600080fd5b810190808051604051939291908464010000000082111561005357600080fd5b8382019150602082018581111561006957600080fd5b825186602082028301116401000000008211171561008657600080fd5b8083526020830192505050908051906020019060200280838360005b838110156100bd5780820151818401526020810190506100a2565b50505050905001604052505050336000806101000a81548173ffffffffffffffffffffffffffffffffffffffff021916908373ffffffffffffffffffffffffffffffffffffffff1602179055508060019080519060200190610120929190610127565b5050610199565b828054828255906000526020600020908101928215610163579160200282015b82811115610162578251825591602001919060010190610147565b5b5090506101709190610174565b5090565b61019691905b8082111561019257600081600090555060010161017a565b5090565b90565b6105df806101a86000396000f3fe608060405234801561001057600080fd5b506004361061009e5760003560e01c80638287e42f116100665780638287e42f146101c35780639d5a052914610205578063c3403ddf14610227578063cc9ab26714610249578063de258fc7146102775761009e565b806309eef43e146100a35780630d15fd77146100ff5780632f265cf71461011d578063392e66781461015f5780635216509a146101a5575b600080fd5b6100e5600480360360208110156100b957600080fd5b81019080803573ffffffffffffffffffffffffffffffffffffffff1690602001909291905050506102c1565b604051808215151515815260200191505060405180910390f35b6101076102e1565b6040518082815260200191505060405180910390f35b6101496004803603602081101561013357600080fd5b81019080803590602001909291905050506102e7565b6040518082815260200191505060405180910390f35b61018b6004803603602081101561017557600080fd5b810190808035906020019092919050505061032f565b604051808215151515815260200191505060405180910390f35b6101ad610385565b6040518082815260200191505060405180910390f35b6101ef600480360360208110156101d957600080fd5b8101908080359060200190929190505050610392565b6040518082815260200191505060405180910390f35b61020d6103b3565b604051808215151515815260200191505060405180910390f35b61022f6103c6565b604051808215151515815260200191505060405180910390f35b6102756004803603602081101561025f57600080fd5b8101908080359060200190929190505050610443565b005b61027f610585565b604051808273ffffffffffffffffffffffffffffffffffffffff1673ffffffffffffffffffffffffffffffffffffffff16815260200191505060405180910390f35b60026020528060005260406000206000915054906101000a900460ff1681565b60045481565b60006102f28261032f565b6102fb57600080fd5b600060149054906101000a900460ff1661031457600080fd5b60036000838152602001908152602001600020549050919050565b600080600090505b60018054905081101561037a57826001828154811061035257fe5b9060005260206000200154141561036d576001915050610380565b8080600101915050610337565b50600090505b919050565b6000600180549050905090565b6001818154811061039f57fe5b906000526020600020016000915090505481565b600060149054906101000a900460ff1681565b60008060009054906101000a900473ffffffffffffffffffffffffffffffffffffffff1673ffffffffffffffffffffffffffffffffffffffff163373ffffffffffffffffffffffffffffffffffffffff161461042157600080fd5b6001600060146101000a81548160ff0219169083151502179055506001905090565b600060149054906101000a900460ff161561045d57600080fd5b6104668161032f565b61046f57600080fd5b600260003373ffffffffffffffffffffffffffffffffffffffff1673ffffffffffffffffffffffffffffffffffffffff16815260200190815260200160002060009054906101000a900460ff16156104c657600080fd5b6000196003600083815260200190815260200160002054106104e757600080fd5b600019600454106104f757600080fd5b600160036000838152602001908152602001600020600082825401925050819055506001600260003373ffffffffffffffffffffffffffffffffffffffff1673ffffffffffffffffffffffffffffffffffffffff16815260200190815260200160002060006101000a81548160ff021916908315150217905550600160046000828254019250508190555050565b6000809054906101000a900473ffffffffffffffffffffffffffffffffffffffff168156fea265627a7a72315820dacb09cf08ed6926c4125d9e62fa5a5d2491d2c61b3b0ec4ff35c77f89d02f5064736f6c63430005100032",
  "source": "pragma solidity >0.4.18 <=0.7.0;\r\n\r\ncontract SecretBallot {\r\n    // The address of the account that created this ballot.\r\n    address public ballotCreator;\r\n\r\n    // Is voting finished? The ballot creator determines when to set this flag.\r\n    bool public votingEnded;\r\n\r\n    // Candidate names\r\n    bytes32[] public candidateNames;\r\n\r\n    // Keep track of which addresses have voted already to prevent multiple votes.\r\n    mapping (address => bool) public hasVoted;\r\n\r\n    // Tallies for each candidate\r\n    mapping (bytes32 => uint256) private votesReceived;\r\n\r\n    // The total number of votes cast so far. Revealed before voting has ended.\r\n    uint256 public totalVotes;\r\n\r\n    constructor(bytes32[] memory _candidateNames) public {\r\n        ballotCreator = msg.sender;\r\n        candidateNames = _candidateNames;\r\n    }\r\n\r\n    function voteForCandidate(bytes32 candidate) public {\r\n        // can only vote during voting period\r\n        require(!votingEnded);\r\n        // candidate must be part of the ballot\r\n        require(validCandidate(candidate));\r\n        // one vote per address (not sybil resistant)\r\n        require(!hasVoted[msg.sender]);\r\n        // prevent overflow\r\n        require(votesReceived[candidate] < ~uint256(0));\r\n        require(totalVotes < ~uint256(0));\r\n\r\n        votesReceived[candidate] += 1;\r\n        hasVoted[msg.sender] = true;\r\n        totalVotes += 1;\r\n    }\r\n\r\n    function endVoting() public returns (bool) {\r\n        require(msg.sender == ballotCreator);  // Only ballot creator can end the vote.\r\n        votingEnded = true;\r\n        return true;\r\n    }\r\n\r\n    function totalVotesFor(bytes32 candidate) view public returns (uint256) {\r\n        require(validCandidate(candidate));\r\n        require(votingEnded);  // Don't reveal votes until voting has ended\r\n        return votesReceived[candidate];\r\n    }\r\n\r\n    function numCandidates() view public returns(uint count) {\r\n        return candidateNames.length;\r\n    }\r\n\r\n    function validCandidate(bytes32 candidate) view public returns (bool) {\r\n        for(uint i = 0; i < candidateNames.length; i++) {\r\n            if (candidateNames[i] == candidate) {\r\n                return true;\r\n            }\r\n        }\r\n        return false;\r\n    }\r\n}\r\n",
  "sourcePath": "C:/Users/ADMIN/Desktop/Truffle/contracts/Simple.sol",
  "compiler": {
    "name": "solc",
    "version": "0.5.16+commit.9c3226ce.Emscripten.clang"
  },
  "schemaVersion": "3.4.1",
  "updatedAt": "2021-05-23T11:25:20.457Z",
  "devdoc": {
    "methods": {}
  },
  "userdoc": {
    "methods": {}
  }
}